{
  "contractName": "Lottery",
  "abi": [
    {
      "constant": true,
      "inputs": [],
      "name": "manager",
      "outputs": [
        {
          "name": "",
          "type": "address"
        }
      ],
      "payable": false,
      "stateMutability": "view",
      "type": "function"
    },
    {
      "constant": true,
      "inputs": [
        {
          "name": "",
          "type": "uint256"
        }
      ],
      "name": "players",
      "outputs": [
        {
          "name": "",
          "type": "address"
        }
      ],
      "payable": false,
      "stateMutability": "view",
      "type": "function"
    },
    {
      "inputs": [],
      "payable": false,
      "stateMutability": "nonpayable",
      "type": "constructor"
    },
    {
      "constant": false,
      "inputs": [],
      "name": "enter",
      "outputs": [],
      "payable": true,
      "stateMutability": "payable",
      "type": "function"
    },
    {
      "constant": false,
      "inputs": [],
      "name": "pickWinner",
      "outputs": [],
      "payable": false,
      "stateMutability": "nonpayable",
      "type": "function"
    },
    {
      "constant": true,
      "inputs": [],
      "name": "getPlayers",
      "outputs": [
        {
          "name": "",
          "type": "address[]"
        }
      ],
      "payable": false,
      "stateMutability": "view",
      "type": "function"
    }
  ],
  "bytecode": "0x6060604052341561000f57600080fd5b336000806101000a81548173ffffffffffffffffffffffffffffffffffffffff021916908373ffffffffffffffffffffffffffffffffffffffff16021790555061064d8061005e6000396000f30060606040526000357c0100000000000000000000000000000000000000000000000000000000900463ffffffff168063481c6a75146100695780635d495aea146100be5780638b5b9ccc146100d3578063e97dcb621461013d578063f71d96cb1461014757600080fd5b341561007457600080fd5b61007c6101aa565b604051808273ffffffffffffffffffffffffffffffffffffffff1673ffffffffffffffffffffffffffffffffffffffff16815260200191505060405180910390f35b34156100c957600080fd5b6100d16101cf565b005b34156100de57600080fd5b6100e6610310565b6040518080602001828103825283818151815260200191508051906020019060200280838360005b8381101561012957808201518184015260208101905061010e565b505050509050019250505060405180910390f35b6101456103a4565b005b341561015257600080fd5b610168600480803590602001909190505061041e565b604051808273ffffffffffffffffffffffffffffffffffffffff1673ffffffffffffffffffffffffffffffffffffffff16815260200191505060405180910390f35b6000809054906101000a900473ffffffffffffffffffffffffffffffffffffffff1681565b60008060009054906101000a900473ffffffffffffffffffffffffffffffffffffffff1673ffffffffffffffffffffffffffffffffffffffff163373ffffffffffffffffffffffffffffffffffffffff1614151561022c57600080fd5b60018054905061023a61045d565b81151561024357fe5b06905060018181548110151561025557fe5b906000526020600020900160009054906101000a900473ffffffffffffffffffffffffffffffffffffffff1673ffffffffffffffffffffffffffffffffffffffff166108fc3073ffffffffffffffffffffffffffffffffffffffff16319081150290604051600060405180830381858888f1935050505015156102d757600080fd5b60006040518059106102e65750595b90808252806020026020018201604052506001908051906020019061030c9291906104ef565b5050565b610318610579565b600180548060200260200160405190810160405280929190818152602001828054801561039a57602002820191906000526020600020905b8160009054906101000a900473ffffffffffffffffffffffffffffffffffffffff1673ffffffffffffffffffffffffffffffffffffffff1681526020019060010190808311610350575b5050505050905090565b662386f26fc10000341115156103b957600080fd5b600180548060010182816103cd919061058d565b9160005260206000209001600033909190916101000a81548173ffffffffffffffffffffffffffffffffffffffff021916908373ffffffffffffffffffffffffffffffffffffffff16021790555050565b60018181548110151561042d57fe5b90600052602060002090016000915054906101000a900473ffffffffffffffffffffffffffffffffffffffff1681565b6000444260016040518084815260200183815260200182805480156104d757602002820191906000526020600020905b8160009054906101000a900473ffffffffffffffffffffffffffffffffffffffff1673ffffffffffffffffffffffffffffffffffffffff168152602001906001019080831161048d575b50509350505050604051809103902060019004905090565b828054828255906000526020600020908101928215610568579160200282015b828111156105675782518260006101000a81548173ffffffffffffffffffffffffffffffffffffffff021916908373ffffffffffffffffffffffffffffffffffffffff1602179055509160200191906001019061050f565b5b50905061057591906105b9565b5090565b602060405190810160405280600081525090565b8154818355818115116105b4578183600052602060002091820191016105b391906105fc565b5b505050565b6105f991905b808211156105f557600081816101000a81549073ffffffffffffffffffffffffffffffffffffffff0219169055506001016105bf565b5090565b90565b61061e91905b8082111561061a576000816000905550600101610602565b5090565b905600a165627a7a723058202cd1fdc6d8ea71db78a2e7fc56618f1a0f143ab4d35382a1a23755deab2c173c0029",
  "source": "contract Lottery{\r\n    address public manager;\r\n    address[] public players;\r\n\r\n    function Lottery() public{\r\n        manager = msg.sender;\r\n    }\r\n\r\n    function enter() public payable{\r\n        // requiring someone to send some amount of ether with the function call\r\n        // if we write \".01 ether\" then this will get converted to appropriate unit\r\n        require(msg.value > .01 ether);\r\n\r\n        players.push(msg.sender);\r\n    }\r\n\r\n    function random() private view returns(uint){\r\n        // calling the sha3 algo\r\n        return uint(keccak256(block.difficulty, now, players));\r\n    }\r\n\r\n    function pickWinner() public restricted {\r\n        // calculating the index of the winner\r\n        uint winnerIndex = random() % players.length;\r\n\r\n        // transfer all of the contarct's ether to the winner's address\r\n        players[winnerIndex].transfer(this.balance);\r\n\r\n        // reseting this lottery contract for next round\r\n        players = new address[](0);\r\n    }\r\n\r\n    modifier restricted(){\r\n        // checking if the person who has called this function is actually the manager or not\r\n        require(msg.sender == manager);\r\n\r\n        _;\r\n    }\r\n\r\n    function getPlayers() public view returns(address[]){\r\n        return players;\r\n    }\r\n}",
  "sourcePath": "C:\\Users\\madle\\OneDrive\\Desktop\\work\\learning-web3\\adv-smart-contracts\\lottery-contract-truffle-new\\contracts\\Lottery.sol",
  "compiler": {
    "name": "solc",
    "version": "0.4.17+commit.bdeb9e52.Emscripten.clang"
  },
  "schemaVersion": "3.4.10",
  "updatedAt": "2022-10-31T19:11:01.057Z",
  "networkType": "ethereum",
  "devdoc": {
    "methods": {}
  },
  "userdoc": {
    "methods": {}
  }
}